{
  "_format": "hh-sol-artifact-1",
  "contractName": "BetManager",
  "sourceName": "contracts/BetManager.sol",
  "abi": [
    {
      "inputs": [
        {
          "internalType": "address",
          "name": "_oracleRegistry",
          "type": "address"
        }
      ],
      "stateMutability": "nonpayable",
      "type": "constructor"
    },
    {
      "inputs": [
        {
          "internalType": "address",
          "name": "owner",
          "type": "address"
        }
      ],
      "name": "OwnableInvalidOwner",
      "type": "error"
    },
    {
      "inputs": [
        {
          "internalType": "address",
          "name": "account",
          "type": "address"
        }
      ],
      "name": "OwnableUnauthorizedAccount",
      "type": "error"
    },
    {
      "anonymous": false,
      "inputs": [
        {
          "indexed": true,
          "internalType": "uint256",
          "name": "betId",
          "type": "uint256"
        }
      ],
      "name": "BetCancelled",
      "type": "event"
    },
    {
      "anonymous": false,
      "inputs": [
        {
          "indexed": true,
          "internalType": "uint256",
          "name": "betId",
          "type": "uint256"
        },
        {
          "indexed": true,
          "internalType": "address",
          "name": "creator",
          "type": "address"
        },
        {
          "indexed": false,
          "internalType": "uint256",
          "name": "amount",
          "type": "uint256"
        },
        {
          "indexed": false,
          "internalType": "string",
          "name": "description",
          "type": "string"
        },
        {
          "indexed": false,
          "internalType": "uint256",
          "name": "deadline",
          "type": "uint256"
        }
      ],
      "name": "BetCreated",
      "type": "event"
    },
    {
      "anonymous": false,
      "inputs": [
        {
          "indexed": true,
          "internalType": "uint256",
          "name": "betId",
          "type": "uint256"
        },
        {
          "indexed": true,
          "internalType": "address",
          "name": "joiner",
          "type": "address"
        },
        {
          "indexed": false,
          "internalType": "uint256",
          "name": "amount",
          "type": "uint256"
        }
      ],
      "name": "BetJoined",
      "type": "event"
    },
    {
      "anonymous": false,
      "inputs": [
        {
          "indexed": true,
          "internalType": "uint256",
          "name": "betId",
          "type": "uint256"
        }
      ],
      "name": "BetRefunded",
      "type": "event"
    },
    {
      "anonymous": false,
      "inputs": [
        {
          "indexed": true,
          "internalType": "uint256",
          "name": "betId",
          "type": "uint256"
        },
        {
          "indexed": false,
          "internalType": "address",
          "name": "winner",
          "type": "address"
        },
        {
          "indexed": false,
          "internalType": "uint256",
          "name": "amount",
          "type": "uint256"
        }
      ],
      "name": "BetSettled",
      "type": "event"
    },
    {
      "anonymous": false,
      "inputs": [
        {
          "indexed": true,
          "internalType": "address",
          "name": "previousOwner",
          "type": "address"
        },
        {
          "indexed": true,
          "internalType": "address",
          "name": "newOwner",
          "type": "address"
        }
      ],
      "name": "OwnershipTransferred",
      "type": "event"
    },
    {
      "inputs": [
        {
          "internalType": "uint256",
          "name": "",
          "type": "uint256"
        }
      ],
      "name": "bets",
      "outputs": [
        {
          "internalType": "address",
          "name": "creator",
          "type": "address"
        },
        {
          "internalType": "address",
          "name": "joiner",
          "type": "address"
        },
        {
          "internalType": "uint256",
          "name": "amount",
          "type": "uint256"
        },
        {
          "internalType": "string",
          "name": "description",
          "type": "string"
        },
        {
          "internalType": "uint256",
          "name": "deadline",
          "type": "uint256"
        },
        {
          "internalType": "bool",
          "name": "creatorWon",
          "type": "bool"
        },
        {
          "internalType": "enum BetManager.BetStatus",
          "name": "status",
          "type": "uint8"
        },
        {
          "internalType": "bool",
          "name": "isSettled",
          "type": "bool"
        }
      ],
      "stateMutability": "view",
      "type": "function"
    },
    {
      "inputs": [
        {
          "internalType": "uint256",
          "name": "betId",
          "type": "uint256"
        }
      ],
      "name": "cancelBet",
      "outputs": [],
      "stateMutability": "nonpayable",
      "type": "function"
    },
    {
      "inputs": [
        {
          "internalType": "string",
          "name": "description",
          "type": "string"
        },
        {
          "internalType": "uint256",
          "name": "deadline",
          "type": "uint256"
        }
      ],
      "name": "createBet",
      "outputs": [],
      "stateMutability": "payable",
      "type": "function"
    },
    {
      "inputs": [
        {
          "internalType": "uint256",
          "name": "betId",
          "type": "uint256"
        }
      ],
      "name": "getBetDetails",
      "outputs": [
        {
          "components": [
            {
              "internalType": "address",
              "name": "creator",
              "type": "address"
            },
            {
              "internalType": "address",
              "name": "joiner",
              "type": "address"
            },
            {
              "internalType": "uint256",
              "name": "amount",
              "type": "uint256"
            },
            {
              "internalType": "string",
              "name": "description",
              "type": "string"
            },
            {
              "internalType": "uint256",
              "name": "deadline",
              "type": "uint256"
            },
            {
              "internalType": "bool",
              "name": "creatorWon",
              "type": "bool"
            },
            {
              "internalType": "enum BetManager.BetStatus",
              "name": "status",
              "type": "uint8"
            },
            {
              "internalType": "bool",
              "name": "isSettled",
              "type": "bool"
            }
          ],
          "internalType": "struct BetManager.Bet",
          "name": "",
          "type": "tuple"
        }
      ],
      "stateMutability": "view",
      "type": "function"
    },
    {
      "inputs": [],
      "name": "getBets",
      "outputs": [
        {
          "components": [
            {
              "internalType": "address",
              "name": "creator",
              "type": "address"
            },
            {
              "internalType": "address",
              "name": "joiner",
              "type": "address"
            },
            {
              "internalType": "uint256",
              "name": "amount",
              "type": "uint256"
            },
            {
              "internalType": "string",
              "name": "description",
              "type": "string"
            },
            {
              "internalType": "uint256",
              "name": "deadline",
              "type": "uint256"
            },
            {
              "internalType": "bool",
              "name": "creatorWon",
              "type": "bool"
            },
            {
              "internalType": "enum BetManager.BetStatus",
              "name": "status",
              "type": "uint8"
            },
            {
              "internalType": "bool",
              "name": "isSettled",
              "type": "bool"
            }
          ],
          "internalType": "struct BetManager.Bet[]",
          "name": "",
          "type": "tuple[]"
        }
      ],
      "stateMutability": "view",
      "type": "function"
    },
    {
      "inputs": [
        {
          "internalType": "uint256",
          "name": "betId",
          "type": "uint256"
        }
      ],
      "name": "joinBet",
      "outputs": [],
      "stateMutability": "payable",
      "type": "function"
    },
    {
      "inputs": [],
      "name": "oracleRegistry",
      "outputs": [
        {
          "internalType": "contract BetOracleRegistry",
          "name": "",
          "type": "address"
        }
      ],
      "stateMutability": "view",
      "type": "function"
    },
    {
      "inputs": [],
      "name": "owner",
      "outputs": [
        {
          "internalType": "address",
          "name": "",
          "type": "address"
        }
      ],
      "stateMutability": "view",
      "type": "function"
    },
    {
      "inputs": [],
      "name": "renounceOwnership",
      "outputs": [],
      "stateMutability": "nonpayable",
      "type": "function"
    },
    {
      "inputs": [
        {
          "internalType": "uint256",
          "name": "betId",
          "type": "uint256"
        },
        {
          "internalType": "bool",
          "name": "creatorWon",
          "type": "bool"
        }
      ],
      "name": "settleBet",
      "outputs": [],
      "stateMutability": "nonpayable",
      "type": "function"
    },
    {
      "inputs": [
        {
          "internalType": "uint256",
          "name": "betId",
          "type": "uint256"
        }
      ],
      "name": "timeoutBet",
      "outputs": [],
      "stateMutability": "nonpayable",
      "type": "function"
    },
    {
      "inputs": [
        {
          "internalType": "address",
          "name": "newOwner",
          "type": "address"
        }
      ],
      "name": "transferOwnership",
      "outputs": [],
      "stateMutability": "nonpayable",
      "type": "function"
    }
  ],
  "bytecode": "0x608060405234801561001057600080fd5b5060405162001a2f38038062001a2f833981016040819052610031916100d6565b338061005757604051631e4fbdf760e01b81526000600482015260240160405180910390fd5b61006081610086565b50600180546001600160a01b0319166001600160a01b0392909216919091179055610106565b600080546001600160a01b038381166001600160a01b0319831681178455604051919092169283917f8be0079c531659141344cd1fd0a4f28419497f9722a3daafe3b4186f6b6457e09190a35050565b6000602082840312156100e857600080fd5b81516001600160a01b03811681146100ff57600080fd5b9392505050565b61191980620001166000396000f3fe6080604052600436106100a75760003560e01c8063715018a611610064578063715018a6146101a35780638da5cb5b146101b8578063a6afd5fd146101d6578063b9a58a9f146101f8578063d670420614610218578063f2fde38b1461022b57600080fd5b806322af00fa146100ac578063357401f5146100e957806339fb3f451461010b5780633df2967e1461011e5780634bb93ab11461014b5780635a645c9214610183575b600080fd5b3480156100b857600080fd5b506100cc6100c73660046113df565b61024b565b6040516100e0989796959493929190611476565b60405180910390f35b3480156100f557600080fd5b506101096101043660046113df565b610340565b005b6101096101193660046113df565b61057c565b34801561012a57600080fd5b5061013e6101393660046113df565b610730565b6040516100e0919061155f565b34801561015757600080fd5b5060015461016b906001600160a01b031681565b6040516001600160a01b0390911681526020016100e0565b34801561018f57600080fd5b5061010961019e366004611587565b6108ea565b3480156101af57600080fd5b50610109610c68565b3480156101c457600080fd5b506000546001600160a01b031661016b565b3480156101e257600080fd5b506101eb610c7c565b6040516100e091906115b7565b34801561020457600080fd5b506101096102133660046113df565b610e00565b610109610226366004611619565b6110cb565b34801561023757600080fd5b50610109610246366004611691565b611324565b6002818154811061025b57600080fd5b600091825260209091206006909102018054600182015460028301546003840180546001600160a01b03948516965092909316939092909161029c906116ba565b80601f01602080910402602001604051908101604052809291908181526020018280546102c8906116ba565b80156103155780601f106102ea57610100808354040283529160200191610315565b820191906000526020600020905b8154815290600101906020018083116102f857829003601f168201915b50505050600483015460059093015491929160ff808216925061010082048116916201000090041688565b600254811061036a5760405162461bcd60e51b8152600401610361906116f4565b60405180910390fd5b60006002828154811061037f5761037f611720565b6000918252602090912060069091020180549091506001600160a01b031633146103eb5760405162461bcd60e51b815260206004820152601760248201527f4f6e6c792063726561746f722063616e2063616e63656c0000000000000000006044820152606401610361565b60006005820154610100900460ff16600481111561040b5761040b61143e565b1461044a5760405162461bcd60e51b815260206004820152600f60248201526e2132ba1034b9903737ba1037b832b760891b6044820152606401610361565b60018101546001600160a01b0316156104a55760405162461bcd60e51b815260206004820152601b60248201527f4265742068617320616c7265616479206265656e206a6f696e656400000000006044820152606401610361565b805460028201546040516000926001600160a01b031691908381818185875af1925050503d80600081146104f5576040519150601f19603f3d011682016040523d82523d6000602084013e6104fa565b606091505b505090508061053b5760405162461bcd60e51b815260206004820152600d60248201526c1499599d5b990819985a5b1959609a1b6044820152606401610361565b60058201805461ff00191661030017905560405183907fe3906e8d1e2167ef706b023e6e83af697db5cd38f233c71bf5021b26b316c3a290600090a2505050565b600254811061059d5760405162461bcd60e51b8152600401610361906116f4565b6000600282815481106105b2576105b2611720565b60009182526020822060069091020191506005820154610100900460ff1660048111156105e1576105e161143e565b146106205760405162461bcd60e51b815260206004820152600f60248201526e2132ba1034b9903737ba1037b832b760891b6044820152606401610361565b80546001600160a01b031633036106795760405162461bcd60e51b815260206004820152601860248201527f43616e6e6f74206a6f696e20796f7572206f776e2062657400000000000000006044820152606401610361565b806002015434146106cc5760405162461bcd60e51b815260206004820152601f60248201527f4d757374206d61746368207468652065786163742062657420616d6f756e74006044820152606401610361565b600180820180546001600160a01b0319163317905560058201805461ff001916610100830217905550604051348152339083907f178c34f2ab8b20fd561010b42eb45708692aa14a05fdf45525fd2f0968277c5e9060200160405180910390a35050565b60408051610100810182526000808252602082018190529181018290526060808201526080810182905260a0810182905260c0810182905260e081019190915260025482106107915760405162461bcd60e51b8152600401610361906116f4565b600282815481106107a4576107a4611720565b60009182526020918290206040805161010081018252600690930290910180546001600160a01b039081168452600182015416938301939093526002830154908201526003820180549192916060840191906107ff906116ba565b80601f016020809104026020016040519081016040528092919081815260200182805461082b906116ba565b80156108785780601f1061084d57610100808354040283529160200191610878565b820191906000526020600020905b81548152906001019060200180831161085b57829003601f168201915b50505091835250506004828101546020830152600583015460ff8082161515604085015260609093019261010090910416908111156108b9576108b961143e565b60048111156108ca576108ca61143e565b81526005919091015462010000900460ff16151560209091015292915050565b600254821061090b5760405162461bcd60e51b8152600401610361906116f4565b600154604051635ff304ed60e11b81523360048201526000916001600160a01b03169063bfe609da90602401602060405180830381865afa158015610954573d6000803e3d6000fd5b505050506040513d601f19601f820116820180604052508101906109789190611736565b905060003361098f6000546001600160a01b031690565b6001600160a01b031614905081806109a45750805b6109f05760405162461bcd60e51b815260206004820152601860248201527f43616c6c6572206973206e6f7420617574686f72697a656400000000000000006044820152606401610361565b600060028581548110610a0557610a05611720565b60009182526020909120600690910201905060016005820154610100900460ff166004811115610a3757610a3761143e565b14610a785760405162461bcd60e51b8152602060048201526011602482015270426574206973206e6f742061637469766560781b6044820152606401610361565b600581015462010000900460ff1615610ac95760405162461bcd60e51b815260206004820152601360248201527210995d08185b1c9958591e481cd95d1d1b1959606a1b6044820152606401610361565b60018101546001600160a01b0316610b235760405162461bcd60e51b815260206004820152601760248201527f42657420686173206e6f74206265656e206a6f696e65640000000000000000006044820152606401610361565b60058101805461ffff191685151561ff001916176102001762ff0000191662010000179055600084610b625760018201546001600160a01b0316610b6e565b81546001600160a01b03165b9050600082600201546002610b839190611753565b90506000826001600160a01b03168260405160006040518083038185875af1925050503d8060008114610bd2576040519150601f19603f3d011682016040523d82523d6000602084013e610bd7565b606091505b5050905080610c1a5760405162461bcd60e51b815260206004820152600f60248201526e151c985b9cd9995c8819985a5b1959608a1b6044820152606401610361565b604080516001600160a01b03851681526020810184905289917f6f277b50171c654e40c771d9c2bbf19e070eeb21cce6f8e9a80334564279e395910160405180910390a25050505050505050565b610c70611362565b610c7a600061138f565b565b60606002805480602002602001604051908101604052809291908181526020016000905b82821015610df757600084815260209081902060408051610100810182526006860290920180546001600160a01b03908116845260018201541693830193909352600283015490820152600382018054919291606084019190610d02906116ba565b80601f0160208091040260200160405190810160405280929190818152602001828054610d2e906116ba565b8015610d7b5780601f10610d5057610100808354040283529160200191610d7b565b820191906000526020600020905b815481529060010190602001808311610d5e57829003601f168201915b50505091835250506004828101546020830152600583015460ff808216151560408501526060909301926101009091041690811115610dbc57610dbc61143e565b6004811115610dcd57610dcd61143e565b81526005919091015460ff6201000090910416151560209182015290825260019092019101610ca0565b50505050905090565b6002548110610e215760405162461bcd60e51b8152600401610361906116f4565b600060028281548110610e3657610e36611720565b9060005260206000209060060201905080600401544211610e995760405162461bcd60e51b815260206004820152601760248201527f446561646c696e6520686173206e6f74207061737365640000000000000000006044820152606401610361565b60016005820154610100900460ff166004811115610eb957610eb961143e565b14610efa5760405162461bcd60e51b8152602060048201526011602482015270426574206973206e6f742061637469766560781b6044820152606401610361565b600581015462010000900460ff1615610f4b5760405162461bcd60e51b815260206004820152601360248201527210995d08185b1c9958591e481cd95d1d1b1959606a1b6044820152606401610361565b805460028201546040516000926001600160a01b031691908381818185875af1925050503d8060008114610f9b576040519150601f19603f3d011682016040523d82523d6000602084013e610fa0565b606091505b5050905080610fe95760405162461bcd60e51b815260206004820152601560248201527410dc99585d1bdc881c99599d5b990819985a5b1959605a1b6044820152606401610361565b600182015460028301546040516000926001600160a01b031691908381818185875af1925050503d806000811461103c576040519150601f19603f3d011682016040523d82523d6000602084013e611041565b606091505b50509050806110895760405162461bcd60e51b8152602060048201526014602482015273129bda5b995c881c99599d5b990819985a5b195960621b6044820152606401610361565b60058301805461ff00191661040017905560405184907f2769e14a1e02e7556feeb03d0b73fc5709a142f7c77e8ecb0982613ab39d165a90600090a250505050565b600034116111255760405162461bcd60e51b815260206004820152602160248201527f42657420616d6f756e74206d7573742062652067726561746572207468616e206044820152600360fc1b6064820152608401610361565b4281116111745760405162461bcd60e51b815260206004820152601e60248201527f446561646c696e65206d75737420626520696e207468652066757475726500006044820152606401610361565b600280546040805161010081018252338152600060208083019190915234828401528251601f88018290048202810182019093528683529293929091606083019188908890819084018382808284376000920182905250938552505050602082018690526040820181905260609091019081526000602091820181905283546001808201865594825290829020835160069092020180546001600160a01b03199081166001600160a01b0393841617825592840151948101805490931694909116939093179055604081015160028301556060810151909190600382019061125c90826117e3565b50608082015160048083019190915560a083015160058301805491151560ff1983168117825560c086015193919261ff001990911661ffff1990911617906101009084908111156112af576112af61143e565b021790555060e08201518160050160026101000a81548160ff0219169083151502179055505050336001600160a01b0316817f55f25f1c8a7ad8b047bcc1d499a3b6a802661f0c3263d5e80836b08e61fda0f63487878760405161131694939291906118a3565b60405180910390a350505050565b61132c611362565b6001600160a01b03811661135657604051631e4fbdf760e01b815260006004820152602401610361565b61135f8161138f565b50565b6000546001600160a01b03163314610c7a5760405163118cdaa760e01b8152336004820152602401610361565b600080546001600160a01b038381166001600160a01b0319831681178455604051919092169283917f8be0079c531659141344cd1fd0a4f28419497f9722a3daafe3b4186f6b6457e09190a35050565b6000602082840312156113f157600080fd5b5035919050565b6000815180845260005b8181101561141e57602081850181015186830182015201611402565b506000602082860101526020601f19601f83011685010191505092915050565b634e487b7160e01b600052602160045260246000fd5b6005811061147257634e487b7160e01b600052602160045260246000fd5b9052565b6001600160a01b0389811682528816602082015260408101879052610100606082018190526000906114aa838201896113f8565b91505085608083015284151560a08301526114c860c0830185611454565b82151560e08301529998505050505050505050565b600061010060018060a01b038084511685528060208501511660208601525060408301516040850152606083015181606086015261151d828601826113f8565b9150506080830151608085015260a0830151151560a085015260c083015161154860c0860182611454565b5060e0830151151560e08501528091505092915050565b60208152600061157260208301846114dd565b9392505050565b801515811461135f57600080fd5b6000806040838503121561159a57600080fd5b8235915060208301356115ac81611579565b809150509250929050565b6000602080830181845280855180835260408601915060408160051b870101925083870160005b8281101561160c57603f198886030184526115fa8583516114dd565b945092850192908501906001016115de565b5092979650505050505050565b60008060006040848603121561162e57600080fd5b833567ffffffffffffffff8082111561164657600080fd5b818601915086601f83011261165a57600080fd5b81358181111561166957600080fd5b87602082850101111561167b57600080fd5b6020928301989097509590910135949350505050565b6000602082840312156116a357600080fd5b81356001600160a01b038116811461157257600080fd5b600181811c908216806116ce57607f821691505b6020821081036116ee57634e487b7160e01b600052602260045260246000fd5b50919050565b60208082526012908201527110995d08191bd95cc81b9bdd08195e1a5cdd60721b604082015260600190565b634e487b7160e01b600052603260045260246000fd5b60006020828403121561174857600080fd5b815161157281611579565b808202811582820484141761177857634e487b7160e01b600052601160045260246000fd5b92915050565b634e487b7160e01b600052604160045260246000fd5b601f8211156117de57600081815260208120601f850160051c810160208610156117bb5750805b601f850160051c820191505b818110156117da578281556001016117c7565b5050505b505050565b815167ffffffffffffffff8111156117fd576117fd61177e565b6118118161180b84546116ba565b84611794565b602080601f831160018114611846576000841561182e5750858301515b600019600386901b1c1916600185901b1785556117da565b600085815260208120601f198616915b8281101561187557888601518255948401946001909101908401611856565b50858210156118935787850151600019600388901b60f8161c191681555b5050505050600190811b01905550565b848152606060208201528260608201528284608083013760006080848301015260006080601f19601f86011683010190508260408301529594505050505056fea26469706673582212206bb5d8384a29ac1c09544411c2168c03ad954237d2dadf4b0c4bfd7296375d2364736f6c63430008140033",
  "linkReferences": {},
  "deployedLinkReferences": {}
}