{
  "_format": "hh-sol-artifact-1",
  "contractName": "BetManager",
  "sourceName": "contracts/BetManager.sol",
  "abi": [
    {
      "inputs": [
        {
          "internalType": "address",
          "name": "_oracleRegistry",
          "type": "address"
        }
      ],
      "stateMutability": "nonpayable",
      "type": "constructor"
    },
    {
      "inputs": [
        {
          "internalType": "address",
          "name": "owner",
          "type": "address"
        }
      ],
      "name": "OwnableInvalidOwner",
      "type": "error"
    },
    {
      "inputs": [
        {
          "internalType": "address",
          "name": "account",
          "type": "address"
        }
      ],
      "name": "OwnableUnauthorizedAccount",
      "type": "error"
    },
    {
      "anonymous": false,
      "inputs": [
        {
          "indexed": true,
          "internalType": "uint256",
          "name": "betId",
          "type": "uint256"
        }
      ],
      "name": "BetCancelled",
      "type": "event"
    },
    {
      "anonymous": false,
      "inputs": [
        {
          "indexed": true,
          "internalType": "uint256",
          "name": "betId",
          "type": "uint256"
        },
        {
          "indexed": true,
          "internalType": "address",
          "name": "creator",
          "type": "address"
        },
        {
          "indexed": false,
          "internalType": "uint256",
          "name": "amount",
          "type": "uint256"
        },
        {
          "indexed": false,
          "internalType": "string",
          "name": "description",
          "type": "string"
        },
        {
          "indexed": false,
          "internalType": "uint256",
          "name": "deadline",
          "type": "uint256"
        },
        {
          "indexed": false,
          "internalType": "string",
          "name": "sportEvent",
          "type": "string"
        },
        {
          "indexed": false,
          "internalType": "string",
          "name": "selectedTeam",
          "type": "string"
        },
        {
          "indexed": false,
          "internalType": "uint256",
          "name": "threshold",
          "type": "uint256"
        },
        {
          "indexed": false,
          "internalType": "bool",
          "name": "isMoreLine",
          "type": "bool"
        }
      ],
      "name": "BetCreated",
      "type": "event"
    },
    {
      "anonymous": false,
      "inputs": [
        {
          "indexed": true,
          "internalType": "uint256",
          "name": "betId",
          "type": "uint256"
        },
        {
          "indexed": true,
          "internalType": "address",
          "name": "joiner",
          "type": "address"
        },
        {
          "indexed": false,
          "internalType": "uint256",
          "name": "amount",
          "type": "uint256"
        }
      ],
      "name": "BetJoined",
      "type": "event"
    },
    {
      "anonymous": false,
      "inputs": [
        {
          "indexed": true,
          "internalType": "uint256",
          "name": "betId",
          "type": "uint256"
        }
      ],
      "name": "BetRefunded",
      "type": "event"
    },
    {
      "anonymous": false,
      "inputs": [
        {
          "indexed": true,
          "internalType": "uint256",
          "name": "betId",
          "type": "uint256"
        },
        {
          "indexed": false,
          "internalType": "address",
          "name": "winner",
          "type": "address"
        },
        {
          "indexed": false,
          "internalType": "uint256",
          "name": "amount",
          "type": "uint256"
        }
      ],
      "name": "BetSettled",
      "type": "event"
    },
    {
      "anonymous": false,
      "inputs": [
        {
          "indexed": true,
          "internalType": "address",
          "name": "previousOwner",
          "type": "address"
        },
        {
          "indexed": true,
          "internalType": "address",
          "name": "newOwner",
          "type": "address"
        }
      ],
      "name": "OwnershipTransferred",
      "type": "event"
    },
    {
      "inputs": [
        {
          "internalType": "uint256",
          "name": "",
          "type": "uint256"
        }
      ],
      "name": "bets",
      "outputs": [
        {
          "internalType": "address",
          "name": "creator",
          "type": "address"
        },
        {
          "internalType": "address",
          "name": "joiner",
          "type": "address"
        },
        {
          "internalType": "uint256",
          "name": "amount",
          "type": "uint256"
        },
        {
          "internalType": "string",
          "name": "description",
          "type": "string"
        },
        {
          "internalType": "uint256",
          "name": "deadline",
          "type": "uint256"
        },
        {
          "internalType": "bool",
          "name": "creatorWon",
          "type": "bool"
        },
        {
          "internalType": "enum BetManager.BetStatus",
          "name": "status",
          "type": "uint8"
        },
        {
          "internalType": "bool",
          "name": "isSettled",
          "type": "bool"
        },
        {
          "internalType": "string",
          "name": "sportEvent",
          "type": "string"
        },
        {
          "internalType": "string",
          "name": "selectedTeam",
          "type": "string"
        },
        {
          "internalType": "uint256",
          "name": "threshold",
          "type": "uint256"
        },
        {
          "internalType": "bool",
          "name": "isMoreLine",
          "type": "bool"
        }
      ],
      "stateMutability": "view",
      "type": "function"
    },
    {
      "inputs": [
        {
          "internalType": "uint256",
          "name": "betId",
          "type": "uint256"
        }
      ],
      "name": "cancelBet",
      "outputs": [],
      "stateMutability": "nonpayable",
      "type": "function"
    },
    {
      "inputs": [
        {
          "internalType": "string",
          "name": "description",
          "type": "string"
        },
        {
          "internalType": "uint256",
          "name": "deadline",
          "type": "uint256"
        },
        {
          "internalType": "string",
          "name": "sportEvent",
          "type": "string"
        },
        {
          "internalType": "string",
          "name": "selectedTeam",
          "type": "string"
        },
        {
          "internalType": "uint256",
          "name": "threshold",
          "type": "uint256"
        },
        {
          "internalType": "bool",
          "name": "isMoreLine",
          "type": "bool"
        }
      ],
      "name": "createBet",
      "outputs": [],
      "stateMutability": "payable",
      "type": "function"
    },
    {
      "inputs": [
        {
          "internalType": "uint256",
          "name": "betId",
          "type": "uint256"
        }
      ],
      "name": "getBetDetails",
      "outputs": [
        {
          "components": [
            {
              "internalType": "address",
              "name": "creator",
              "type": "address"
            },
            {
              "internalType": "address",
              "name": "joiner",
              "type": "address"
            },
            {
              "internalType": "uint256",
              "name": "amount",
              "type": "uint256"
            },
            {
              "internalType": "string",
              "name": "description",
              "type": "string"
            },
            {
              "internalType": "uint256",
              "name": "deadline",
              "type": "uint256"
            },
            {
              "internalType": "bool",
              "name": "creatorWon",
              "type": "bool"
            },
            {
              "internalType": "enum BetManager.BetStatus",
              "name": "status",
              "type": "uint8"
            },
            {
              "internalType": "bool",
              "name": "isSettled",
              "type": "bool"
            },
            {
              "internalType": "string",
              "name": "sportEvent",
              "type": "string"
            },
            {
              "internalType": "string",
              "name": "selectedTeam",
              "type": "string"
            },
            {
              "internalType": "uint256",
              "name": "threshold",
              "type": "uint256"
            },
            {
              "internalType": "bool",
              "name": "isMoreLine",
              "type": "bool"
            }
          ],
          "internalType": "struct BetManager.Bet",
          "name": "",
          "type": "tuple"
        }
      ],
      "stateMutability": "view",
      "type": "function"
    },
    {
      "inputs": [],
      "name": "getBets",
      "outputs": [
        {
          "components": [
            {
              "internalType": "address",
              "name": "creator",
              "type": "address"
            },
            {
              "internalType": "address",
              "name": "joiner",
              "type": "address"
            },
            {
              "internalType": "uint256",
              "name": "amount",
              "type": "uint256"
            },
            {
              "internalType": "string",
              "name": "description",
              "type": "string"
            },
            {
              "internalType": "uint256",
              "name": "deadline",
              "type": "uint256"
            },
            {
              "internalType": "bool",
              "name": "creatorWon",
              "type": "bool"
            },
            {
              "internalType": "enum BetManager.BetStatus",
              "name": "status",
              "type": "uint8"
            },
            {
              "internalType": "bool",
              "name": "isSettled",
              "type": "bool"
            },
            {
              "internalType": "string",
              "name": "sportEvent",
              "type": "string"
            },
            {
              "internalType": "string",
              "name": "selectedTeam",
              "type": "string"
            },
            {
              "internalType": "uint256",
              "name": "threshold",
              "type": "uint256"
            },
            {
              "internalType": "bool",
              "name": "isMoreLine",
              "type": "bool"
            }
          ],
          "internalType": "struct BetManager.Bet[]",
          "name": "",
          "type": "tuple[]"
        }
      ],
      "stateMutability": "view",
      "type": "function"
    },
    {
      "inputs": [
        {
          "internalType": "uint256",
          "name": "betId",
          "type": "uint256"
        }
      ],
      "name": "joinBet",
      "outputs": [],
      "stateMutability": "payable",
      "type": "function"
    },
    {
      "inputs": [],
      "name": "oracleRegistry",
      "outputs": [
        {
          "internalType": "contract BetOracleRegistry",
          "name": "",
          "type": "address"
        }
      ],
      "stateMutability": "view",
      "type": "function"
    },
    {
      "inputs": [],
      "name": "owner",
      "outputs": [
        {
          "internalType": "address",
          "name": "",
          "type": "address"
        }
      ],
      "stateMutability": "view",
      "type": "function"
    },
    {
      "inputs": [],
      "name": "renounceOwnership",
      "outputs": [],
      "stateMutability": "nonpayable",
      "type": "function"
    },
    {
      "inputs": [
        {
          "internalType": "uint256",
          "name": "betId",
          "type": "uint256"
        },
        {
          "internalType": "bool",
          "name": "creatorWon",
          "type": "bool"
        }
      ],
      "name": "settleBet",
      "outputs": [],
      "stateMutability": "nonpayable",
      "type": "function"
    },
    {
      "inputs": [
        {
          "internalType": "uint256",
          "name": "betId",
          "type": "uint256"
        }
      ],
      "name": "timeoutBet",
      "outputs": [],
      "stateMutability": "nonpayable",
      "type": "function"
    },
    {
      "inputs": [
        {
          "internalType": "address",
          "name": "newOwner",
          "type": "address"
        }
      ],
      "name": "transferOwnership",
      "outputs": [],
      "stateMutability": "nonpayable",
      "type": "function"
    }
  ],
  "bytecode": "0x60806040523480156200001157600080fd5b506040516200208e3803806200208e8339810160408190526200003491620000dd565b33806200005b57604051631e4fbdf760e01b81526000600482015260240160405180910390fd5b62000066816200008d565b50600180546001600160a01b0319166001600160a01b03929092169190911790556200010f565b600080546001600160a01b038381166001600160a01b0319831681178455604051919092169283917f8be0079c531659141344cd1fd0a4f28419497f9722a3daafe3b4186f6b6457e09190a35050565b600060208284031215620000f057600080fd5b81516001600160a01b03811681146200010857600080fd5b9392505050565b611f6f806200011f6000396000f3fe6080604052600436106100a75760003560e01c8063715018a611610064578063715018a6146101a75780638da5cb5b146101bc578063a6afd5fd146101da578063b9a58a9f146101fc578063f2fde38b1461021c578063ffa4a0531461023c57600080fd5b806322af00fa146100ac578063357401f5146100ed57806339fb3f451461010f5780633df2967e146101225780634bb93ab11461014f5780635a645c9214610187575b600080fd5b3480156100b857600080fd5b506100cc6100c736600461189c565b61024f565b6040516100e49c9b9a99989796959493929190611933565b60405180910390f35b3480156100f957600080fd5b5061010d61010836600461189c565b610475565b005b61010d61011d36600461189c565b6106b1565b34801561012e57600080fd5b5061014261013d36600461189c565b610865565b6040516100e49190611ad4565b34801561015b57600080fd5b5060015461016f906001600160a01b031681565b6040516001600160a01b0390911681526020016100e4565b34801561019357600080fd5b5061010d6101a2366004611afc565b610b81565b3480156101b357600080fd5b5061010d610eff565b3480156101c857600080fd5b506000546001600160a01b031661016f565b3480156101e657600080fd5b506101ef610f13565b6040516100e49190611b2c565b34801561020857600080fd5b5061010d61021736600461189c565b6111db565b34801561022857600080fd5b5061010d610237366004611b8e565b6114a6565b61010d61024a366004611c00565b6114e4565b6002818154811061025f57600080fd5b60009182526020909120600a909102018054600182015460028301546003840180546001600160a01b0394851696509290931693909290916102a090611cc0565b80601f01602080910402602001604051908101604052809291908181526020018280546102cc90611cc0565b80156103195780601f106102ee57610100808354040283529160200191610319565b820191906000526020600020905b8154815290600101906020018083116102fc57829003601f168201915b50505050600483015460058401546006850180549495929460ff80841695506101008404811694620100009094041692919061035490611cc0565b80601f016020809104026020016040519081016040528092919081815260200182805461038090611cc0565b80156103cd5780601f106103a2576101008083540402835291602001916103cd565b820191906000526020600020905b8154815290600101906020018083116103b057829003601f168201915b5050505050908060070180546103e290611cc0565b80601f016020809104026020016040519081016040528092919081815260200182805461040e90611cc0565b801561045b5780601f106104305761010080835404028352916020019161045b565b820191906000526020600020905b81548152906001019060200180831161043e57829003601f168201915b50505050600883015460099093015491929160ff1690508c565b600254811061049f5760405162461bcd60e51b815260040161049690611cfa565b60405180910390fd5b6000600282815481106104b4576104b4611d26565b60009182526020909120600a9091020180549091506001600160a01b031633146105205760405162461bcd60e51b815260206004820152601760248201527f4f6e6c792063726561746f722063616e2063616e63656c0000000000000000006044820152606401610496565b60006005820154610100900460ff166004811115610540576105406118fb565b1461057f5760405162461bcd60e51b815260206004820152600f60248201526e2132ba1034b9903737ba1037b832b760891b6044820152606401610496565b60018101546001600160a01b0316156105da5760405162461bcd60e51b815260206004820152601b60248201527f4265742068617320616c7265616479206265656e206a6f696e656400000000006044820152606401610496565b805460028201546040516000926001600160a01b031691908381818185875af1925050503d806000811461062a576040519150601f19603f3d011682016040523d82523d6000602084013e61062f565b606091505b50509050806106705760405162461bcd60e51b815260206004820152600d60248201526c1499599d5b990819985a5b1959609a1b6044820152606401610496565b60058201805461ff00191661030017905560405183907fe3906e8d1e2167ef706b023e6e83af697db5cd38f233c71bf5021b26b316c3a290600090a2505050565b60025481106106d25760405162461bcd60e51b815260040161049690611cfa565b6000600282815481106106e7576106e7611d26565b600091825260208220600a9091020191506005820154610100900460ff166004811115610716576107166118fb565b146107555760405162461bcd60e51b815260206004820152600f60248201526e2132ba1034b9903737ba1037b832b760891b6044820152606401610496565b80546001600160a01b031633036107ae5760405162461bcd60e51b815260206004820152601860248201527f43616e6e6f74206a6f696e20796f7572206f776e2062657400000000000000006044820152606401610496565b806002015434146108015760405162461bcd60e51b815260206004820152601f60248201527f4d757374206d61746368207468652065786163742062657420616d6f756e74006044820152606401610496565b600180820180546001600160a01b0319163317905560058201805461ff001916610100830217905550604051348152339083907f178c34f2ab8b20fd561010b42eb45708692aa14a05fdf45525fd2f0968277c5e9060200160405180910390a35050565b6108c760408051610180810182526000808252602082018190529181018290526060808201526080810182905260a081018290529060c08201908152600060208201819052606060408301819052808301526080820181905260a09091015290565b60025482106108e85760405162461bcd60e51b815260040161049690611cfa565b600282815481106108fb576108fb611d26565b60009182526020918290206040805161018081018252600a90930290910180546001600160a01b0390811684526001820154169383019390935260028301549082015260038201805491929160608401919061095690611cc0565b80601f016020809104026020016040519081016040528092919081815260200182805461098290611cc0565b80156109cf5780601f106109a4576101008083540402835291602001916109cf565b820191906000526020600020905b8154815290600101906020018083116109b257829003601f168201915b50505091835250506004828101546020830152600583015460ff808216151560408501526060909301926101009091041690811115610a1057610a106118fb565b6004811115610a2157610a216118fb565b8152600582015462010000900460ff1615156020820152600682018054604090920191610a4d90611cc0565b80601f0160208091040260200160405190810160405280929190818152602001828054610a7990611cc0565b8015610ac65780601f10610a9b57610100808354040283529160200191610ac6565b820191906000526020600020905b815481529060010190602001808311610aa957829003601f168201915b50505050508152602001600782018054610adf90611cc0565b80601f0160208091040260200160405190810160405280929190818152602001828054610b0b90611cc0565b8015610b585780601f10610b2d57610100808354040283529160200191610b58565b820191906000526020600020905b815481529060010190602001808311610b3b57829003601f168201915b50505091835250506008820154602082015260099091015460ff16151560409091015292915050565b6002548210610ba25760405162461bcd60e51b815260040161049690611cfa565b600154604051635ff304ed60e11b81523360048201526000916001600160a01b03169063bfe609da90602401602060405180830381865afa158015610beb573d6000803e3d6000fd5b505050506040513d601f19601f82011682018060405250810190610c0f9190611d3c565b9050600033610c266000546001600160a01b031690565b6001600160a01b03161490508180610c3b5750805b610c875760405162461bcd60e51b815260206004820152601860248201527f43616c6c6572206973206e6f7420617574686f72697a656400000000000000006044820152606401610496565b600060028581548110610c9c57610c9c611d26565b60009182526020909120600a90910201905060016005820154610100900460ff166004811115610cce57610cce6118fb565b14610d0f5760405162461bcd60e51b8152602060048201526011602482015270426574206973206e6f742061637469766560781b6044820152606401610496565b600581015462010000900460ff1615610d605760405162461bcd60e51b815260206004820152601360248201527210995d08185b1c9958591e481cd95d1d1b1959606a1b6044820152606401610496565b60018101546001600160a01b0316610dba5760405162461bcd60e51b815260206004820152601760248201527f42657420686173206e6f74206265656e206a6f696e65640000000000000000006044820152606401610496565b60058101805461ffff191685151561ff001916176102001762ff0000191662010000179055600084610df95760018201546001600160a01b0316610e05565b81546001600160a01b03165b9050600082600201546002610e1a9190611d59565b90506000826001600160a01b03168260405160006040518083038185875af1925050503d8060008114610e69576040519150601f19603f3d011682016040523d82523d6000602084013e610e6e565b606091505b5050905080610eb15760405162461bcd60e51b815260206004820152600f60248201526e151c985b9cd9995c8819985a5b1959608a1b6044820152606401610496565b604080516001600160a01b03851681526020810184905289917f6f277b50171c654e40c771d9c2bbf19e070eeb21cce6f8e9a80334564279e395910160405180910390a25050505050505050565b610f0761181f565b610f11600061184c565b565b60606002805480602002602001604051908101604052809291908181526020016000905b828210156111d25760008481526020908190206040805161018081018252600a860290920180546001600160a01b03908116845260018201541693830193909352600283015490820152600382018054919291606084019190610f9990611cc0565b80601f0160208091040260200160405190810160405280929190818152602001828054610fc590611cc0565b80156110125780601f10610fe757610100808354040283529160200191611012565b820191906000526020600020905b815481529060010190602001808311610ff557829003601f168201915b50505091835250506004828101546020830152600583015460ff808216151560408501526060909301926101009091041690811115611053576110536118fb565b6004811115611064576110646118fb565b8152600582015462010000900460ff161515602082015260068201805460409092019161109090611cc0565b80601f01602080910402602001604051908101604052809291908181526020018280546110bc90611cc0565b80156111095780601f106110de57610100808354040283529160200191611109565b820191906000526020600020905b8154815290600101906020018083116110ec57829003601f168201915b5050505050815260200160078201805461112290611cc0565b80601f016020809104026020016040519081016040528092919081815260200182805461114e90611cc0565b801561119b5780601f106111705761010080835404028352916020019161119b565b820191906000526020600020905b81548152906001019060200180831161117e57829003601f168201915b5050509183525050600882015460208083019190915260099092015460ff1615156040909101529082526001929092019101610f37565b50505050905090565b60025481106111fc5760405162461bcd60e51b815260040161049690611cfa565b60006002828154811061121157611211611d26565b90600052602060002090600a02019050806004015442116112745760405162461bcd60e51b815260206004820152601760248201527f446561646c696e6520686173206e6f74207061737365640000000000000000006044820152606401610496565b60016005820154610100900460ff166004811115611294576112946118fb565b146112d55760405162461bcd60e51b8152602060048201526011602482015270426574206973206e6f742061637469766560781b6044820152606401610496565b600581015462010000900460ff16156113265760405162461bcd60e51b815260206004820152601360248201527210995d08185b1c9958591e481cd95d1d1b1959606a1b6044820152606401610496565b805460028201546040516000926001600160a01b031691908381818185875af1925050503d8060008114611376576040519150601f19603f3d011682016040523d82523d6000602084013e61137b565b606091505b50509050806113c45760405162461bcd60e51b815260206004820152601560248201527410dc99585d1bdc881c99599d5b990819985a5b1959605a1b6044820152606401610496565b600182015460028301546040516000926001600160a01b031691908381818185875af1925050503d8060008114611417576040519150601f19603f3d011682016040523d82523d6000602084013e61141c565b606091505b50509050806114645760405162461bcd60e51b8152602060048201526014602482015273129bda5b995c881c99599d5b990819985a5b195960621b6044820152606401610496565b60058301805461ff00191661040017905560405184907f2769e14a1e02e7556feeb03d0b73fc5709a142f7c77e8ecb0982613ab39d165a90600090a250505050565b6114ae61181f565b6001600160a01b0381166114d857604051631e4fbdf760e01b815260006004820152602401610496565b6114e18161184c565b50565b6000341161153e5760405162461bcd60e51b815260206004820152602160248201527f42657420616d6f756e74206d7573742062652067726561746572207468616e206044820152600360fc1b6064820152608401610496565b42871161158d5760405162461bcd60e51b815260206004820152601e60248201527f446561646c696e65206d75737420626520696e207468652066757475726500006044820152606401610496565b600280546040805161018081018252338152600060208083019190915234828401528251601f8e018290048202810182019093528c8352929392909160608301918e908e90819084018382808284376000920182905250938552505050602082018c905260408201819052606090910190815260200160001515815260200189898080601f016020809104026020016040519081016040528093929190818152602001838380828437600092019190915250505090825250604080516020601f8a018190048102820181019092528881529181019190899089908190840183828082843760009201829052509385525050506020808301889052861515604093840152845460018181018755958352918190208451600a9093020180546001600160a01b039384166001600160a01b031991821617825591850151958101805496909316959091169490941790558101516002830155606081015190919060038201906116fa9082611de9565b50608082015160048083019190915560a083015160058301805491151560ff1983168117825560c086015193919261ff001990911661ffff19909116179061010090849081111561174d5761174d6118fb565b021790555060e0820151600582018054911515620100000262ff00001990921691909117905561010082015160068201906117889082611de9565b50610120820151600782019061179e9082611de9565b506101408201516008820155610160909101516009909101805460ff1916911515919091179055604051339082907f554ce5766472752abb4461b4ea2b7e2f6d78066dd323cfcfd5d6bff6d6685c4c9061180b9034908f908f908f908f908f908f908f908f908f90611ed2565b60405180910390a350505050505050505050565b6000546001600160a01b03163314610f115760405163118cdaa760e01b8152336004820152602401610496565b600080546001600160a01b038381166001600160a01b0319831681178455604051919092169283917f8be0079c531659141344cd1fd0a4f28419497f9722a3daafe3b4186f6b6457e09190a35050565b6000602082840312156118ae57600080fd5b5035919050565b6000815180845260005b818110156118db576020818501810151868301820152016118bf565b506000602082860101526020601f19601f83011685010191505092915050565b634e487b7160e01b600052602160045260246000fd5b6005811061192f57634e487b7160e01b600052602160045260246000fd5b9052565b6001600160a01b038d811682528c166020820152604081018b9052610180606082018190526000906119679083018c6118b5565b8a608084015289151560a084015261198260c084018a611911565b87151560e084015282810361010084015261199d81886118b5565b90508281036101208401526119b281876118b5565b915050836101408301526119cb61016083018415159052565b9d9c50505050505050505050505050565b80516001600160a01b0316825260006101806020830151611a0860208601826001600160a01b03169052565b50604083015160408501526060830151816060860152611a2a828601826118b5565b9150506080830151608085015260a0830151611a4a60a086018215159052565b5060c0830151611a5d60c0860182611911565b5060e0830151611a7160e086018215159052565b506101008084015185830382870152611a8a83826118b5565b925050506101208084015185830382870152611aa683826118b5565b9250505061014080840151818601525061016080840151611aca8287018215159052565b5090949350505050565b602081526000611ae760208301846119dc565b9392505050565b80151581146114e157600080fd5b60008060408385031215611b0f57600080fd5b823591506020830135611b2181611aee565b809150509250929050565b6000602080830181845280855180835260408601915060408160051b870101925083870160005b82811015611b8157603f19888603018452611b6f8583516119dc565b94509285019290850190600101611b53565b5092979650505050505050565b600060208284031215611ba057600080fd5b81356001600160a01b0381168114611ae757600080fd5b60008083601f840112611bc957600080fd5b50813567ffffffffffffffff811115611be157600080fd5b602083019150836020828501011115611bf957600080fd5b9250929050565b600080600080600080600080600060c08a8c031215611c1e57600080fd5b893567ffffffffffffffff80821115611c3657600080fd5b611c428d838e01611bb7565b909b50995060208c0135985060408c0135915080821115611c6257600080fd5b611c6e8d838e01611bb7565b909850965060608c0135915080821115611c8757600080fd5b50611c948c828d01611bb7565b90955093505060808a0135915060a08a0135611caf81611aee565b809150509295985092959850929598565b600181811c90821680611cd457607f821691505b602082108103611cf457634e487b7160e01b600052602260045260246000fd5b50919050565b60208082526012908201527110995d08191bd95cc81b9bdd08195e1a5cdd60721b604082015260600190565b634e487b7160e01b600052603260045260246000fd5b600060208284031215611d4e57600080fd5b8151611ae781611aee565b8082028115828204841417611d7e57634e487b7160e01b600052601160045260246000fd5b92915050565b634e487b7160e01b600052604160045260246000fd5b601f821115611de457600081815260208120601f850160051c81016020861015611dc15750805b601f850160051c820191505b81811015611de057828155600101611dcd565b5050505b505050565b815167ffffffffffffffff811115611e0357611e03611d84565b611e1781611e118454611cc0565b84611d9a565b602080601f831160018114611e4c5760008415611e345750858301515b600019600386901b1c1916600185901b178555611de0565b600085815260208120601f198616915b82811015611e7b57888601518255948401946001909101908401611e5c565b5085821015611e995787850151600019600388901b60f8161c191681555b5050505050600190811b01905550565b81835281816020850137506000828201602090810191909152601f909101601f19169091010190565b8a815260e060208201526000611eec60e083018b8d611ea9565b8960408401528281036060840152611f0581898b611ea9565b90508281036080840152611f1a818789611ea9565b60a0840195909552505090151560c0909101529897505050505050505056fea2646970667358221220139584a29949ea39e57f2d0b1cb050c689d264c5bcc2b754910872413c667a5c64736f6c63430008140033",
  "linkReferences": {},
  "deployedLinkReferences": {}
}