{
  "_format": "hh-sol-artifact-1",
  "contractName": "BetOracleRegistry",
  "sourceName": "contracts/BetOracleRegistry.sol",
  "abi": [
    {
      "inputs": [],
      "stateMutability": "nonpayable",
      "type": "constructor"
    },
    {
      "inputs": [
        {
          "internalType": "address",
          "name": "owner",
          "type": "address"
        }
      ],
      "name": "OwnableInvalidOwner",
      "type": "error"
    },
    {
      "inputs": [
        {
          "internalType": "address",
          "name": "account",
          "type": "address"
        }
      ],
      "name": "OwnableUnauthorizedAccount",
      "type": "error"
    },
    {
      "anonymous": false,
      "inputs": [
        {
          "indexed": true,
          "internalType": "address",
          "name": "oracle",
          "type": "address"
        }
      ],
      "name": "OracleAdded",
      "type": "event"
    },
    {
      "anonymous": false,
      "inputs": [
        {
          "indexed": true,
          "internalType": "address",
          "name": "oracle",
          "type": "address"
        }
      ],
      "name": "OracleRemoved",
      "type": "event"
    },
    {
      "anonymous": false,
      "inputs": [
        {
          "indexed": true,
          "internalType": "address",
          "name": "previousOwner",
          "type": "address"
        },
        {
          "indexed": true,
          "internalType": "address",
          "name": "newOwner",
          "type": "address"
        }
      ],
      "name": "OwnershipTransferred",
      "type": "event"
    },
    {
      "anonymous": false,
      "inputs": [
        {
          "indexed": true,
          "internalType": "uint256",
          "name": "betId",
          "type": "uint256"
        },
        {
          "indexed": false,
          "internalType": "bool",
          "name": "creatorWon",
          "type": "bool"
        },
        {
          "indexed": false,
          "internalType": "address",
          "name": "oracle",
          "type": "address"
        }
      ],
      "name": "ResultSubmitted",
      "type": "event"
    },
    {
      "inputs": [
        {
          "internalType": "address",
          "name": "oracle",
          "type": "address"
        }
      ],
      "name": "addOracle",
      "outputs": [],
      "stateMutability": "nonpayable",
      "type": "function"
    },
    {
      "inputs": [
        {
          "internalType": "uint256",
          "name": "betId",
          "type": "uint256"
        },
        {
          "internalType": "address",
          "name": "oracle",
          "type": "address"
        }
      ],
      "name": "assignOracleToBet",
      "outputs": [],
      "stateMutability": "nonpayable",
      "type": "function"
    },
    {
      "inputs": [
        {
          "internalType": "uint256",
          "name": "betId",
          "type": "uint256"
        }
      ],
      "name": "getOracle",
      "outputs": [
        {
          "internalType": "address",
          "name": "",
          "type": "address"
        }
      ],
      "stateMutability": "view",
      "type": "function"
    },
    {
      "inputs": [
        {
          "internalType": "address",
          "name": "oracle",
          "type": "address"
        }
      ],
      "name": "isAuthorizedOracle",
      "outputs": [
        {
          "internalType": "bool",
          "name": "",
          "type": "bool"
        }
      ],
      "stateMutability": "view",
      "type": "function"
    },
    {
      "inputs": [],
      "name": "owner",
      "outputs": [
        {
          "internalType": "address",
          "name": "",
          "type": "address"
        }
      ],
      "stateMutability": "view",
      "type": "function"
    },
    {
      "inputs": [
        {
          "internalType": "address",
          "name": "oracle",
          "type": "address"
        }
      ],
      "name": "removeOracle",
      "outputs": [],
      "stateMutability": "nonpayable",
      "type": "function"
    },
    {
      "inputs": [],
      "name": "renounceOwnership",
      "outputs": [],
      "stateMutability": "nonpayable",
      "type": "function"
    },
    {
      "inputs": [
        {
          "internalType": "uint256",
          "name": "betId",
          "type": "uint256"
        },
        {
          "internalType": "bool",
          "name": "creatorWon",
          "type": "bool"
        }
      ],
      "name": "submitResult",
      "outputs": [
        {
          "internalType": "bool",
          "name": "",
          "type": "bool"
        }
      ],
      "stateMutability": "nonpayable",
      "type": "function"
    },
    {
      "inputs": [
        {
          "internalType": "address",
          "name": "newOwner",
          "type": "address"
        }
      ],
      "name": "transferOwnership",
      "outputs": [],
      "stateMutability": "nonpayable",
      "type": "function"
    }
  ],
  "bytecode": "0x608060405234801561001057600080fd5b50338061003757604051631e4fbdf760e01b81526000600482015260240160405180910390fd5b61004081610046565b50610096565b600080546001600160a01b038381166001600160a01b0319831681178455604051919092169283917f8be0079c531659141344cd1fd0a4f28419497f9722a3daafe3b4186f6b6457e09190a35050565b610732806100a56000396000f3fe608060405234801561001057600080fd5b50600436106100935760003560e01c80638da5cb5b116100665780638da5cb5b1461011e578063bfe609da1461012f578063df5dd1a51461015b578063f2fde38b1461016e578063fdc85fc41461018157600080fd5b80630c48c0791461009857806310a9de60146100c057806321aa68fd14610101578063715018a614610116575b600080fd5b6100ab6100a6366004610644565b610194565b60405190151581526020015b60405180910390f35b6100e96100ce366004610679565b6000908152600160205260409020546001600160a01b031690565b6040516001600160a01b0390911681526020016100b7565b61011461010f3660046106ae565b6102bb565b005b6101146103b9565b6000546001600160a01b03166100e9565b6100ab61013d3660046106da565b6001600160a01b031660009081526002602052604090205460ff1690565b6101146101693660046106da565b6103cd565b61011461017c3660046106da565b6104d8565b61011461018f3660046106da565b610516565b3360009081526002602052604081205460ff166101f35760405162461bcd60e51b81526020600482015260186024820152774e6f7420616e20617574686f72697a6564206f7261636c6560401b60448201526064015b60405180910390fd5b6000838152600160205260409020546001600160a01b0316158061022d57506000838152600160205260409020546001600160a01b031633145b6102795760405162461bcd60e51b815260206004820152601b60248201527f4e6f7420617574686f72697a656420666f72207468697320626574000000000060448201526064016101ea565b60408051831515815233602082015284917f54e1a62374262b36e3e70b78e804ac2d0ba8a3669ce5500b08ddbde0500b1e12910160405180910390a250919050565b6102c36105c7565b6001600160a01b03811660009081526002602052604090205460ff166103265760405162461bcd60e51b81526020600482015260186024820152774e6f7420616e20617574686f72697a6564206f7261636c6560401b60448201526064016101ea565b6000828152600160205260409020546001600160a01b03161561038b5760405162461bcd60e51b815260206004820152601960248201527f42657420616c72656164792068617320616e206f7261636c650000000000000060448201526064016101ea565b60009182526001602052604090912080546001600160a01b0319166001600160a01b03909216919091179055565b6103c16105c7565b6103cb60006105f4565b565b6103d56105c7565b6001600160a01b0381166104245760405162461bcd60e51b8152602060048201526016602482015275496e76616c6964206f7261636c65206164647265737360501b60448201526064016101ea565b6001600160a01b03811660009081526002602052604090205460ff161561048d5760405162461bcd60e51b815260206004820152601960248201527f4f7261636c6520616c726561647920617574686f72697a65640000000000000060448201526064016101ea565b6001600160a01b038116600081815260026020526040808220805460ff19166001179055517e47706786c922d17b39285dc59d696bafea72c0b003d3841ae1202076f4c2e49190a250565b6104e06105c7565b6001600160a01b03811661050a57604051631e4fbdf760e01b8152600060048201526024016101ea565b610513816105f4565b50565b61051e6105c7565b6001600160a01b03811660009081526002602052604090205460ff1661057e5760405162461bcd60e51b815260206004820152601560248201527413dc9858db19481b9bdd08185d5d1a1bdc9a5e9959605a1b60448201526064016101ea565b6001600160a01b038116600081815260026020526040808220805460ff19169055517f9c8e7d83025bef8a04c664b2f753f64b8814bdb7e27291d7e50935f18cc3c7129190a250565b6000546001600160a01b031633146103cb5760405163118cdaa760e01b81523360048201526024016101ea565b600080546001600160a01b038381166001600160a01b0319831681178455604051919092169283917f8be0079c531659141344cd1fd0a4f28419497f9722a3daafe3b4186f6b6457e09190a35050565b6000806040838503121561065757600080fd5b823591506020830135801515811461066e57600080fd5b809150509250929050565b60006020828403121561068b57600080fd5b5035919050565b80356001600160a01b03811681146106a957600080fd5b919050565b600080604083850312156106c157600080fd5b823591506106d160208401610692565b90509250929050565b6000602082840312156106ec57600080fd5b6106f582610692565b939250505056fea26469706673582212200fa2423afb358a23c2ed33f8f9c3964f4f58a0f24c026651a65d8affea19ff7664736f6c63430008140033",
  "linkReferences": {},
  "deployedLinkReferences": {}
}